:1000030049414D4E4F5446494E454F4B004655438B
:0D0013004B35363738394100000000000041
:1007E8000225000002280000012100012300012247
:0407F80000012400D8
:03002300020510C3
:10051000C0E0C083C082C0D075D000C00730981F33
:10052000C298AF2374002FF582E43400F583E59977
:10053000F00523E523C394324003752300D2003035
:100540009923C299E5226524601BAF2274322FF5EE
:1005500082E43400F583E0F5990522E522C3943264
:100560004003752200D007D0D0D082D083D0E032B3
:1007CD00AE2474322EF582E43400F583EFF0052467
:0B07DD00E524C394324003E4F524221D
:0A0772008E198F1A8B1B8A1C891D3B
:10077C00E519FF1207CDAF1A1207CDAF041207CD42
:10078C00AF051207CDE4FDAB1BAA1CA91D8D82750C
:0D079C00830012011CFF1207CD0DBD0AEAFB
:0107A900222D
:1007AA00438E0253B3EF43B41053B3FB43B4047FF5
:1007BA00007EC27D017C00120441D29AC299D2AC59
:0307CA00D2AF2289
:1003D00078097C007D007BFF7A0079107E007F1019
:1003E0001200F61207AA300004B292C200D294782A
:1003F000097C007D007BFF7A0079031203077B00F4
:100400007A00790974FFFDFC7FFB7EAA120772D285
:10041000997FC87E007D007C001206A37F027E00CB
:100420007D007C001206A3D2997FC87E007D007CEF
:10043000001206A37F027E007D007C001206A380CE
:01044000A516
:1007390053B1BF53B2BF53B17F53B27F7598D04302
:100749008920438780438E1053C4DFAB07AA06A9CB
:1007590005A8047F407E427D0F7C00120185EF04CD
:09076900F404F58DD28ED2992220
:100441008F1C8E1B8D1A8C1953B1BF53B2BF53B180
:100451007F53B27F75985043878053C4F843C420BB
:10046100AB1CAA1BA91AA8197F407E427D0F7C00F4
:10047100120185C374FF9FFF74FF9EFEE49DFDE49E
:100481009CFC78081202288FC6AB1CAA1BA91AA8CB
:10049100197F407E427D0F7C00120185C374FF9F4E
:0904A100FF8FC543C408D2992263
:0707FD003098FDAF99C2988E
:0108040022D1
:08080500C2998F993099FD2280
:1004AA008F4B8E4A8D498C4853B1FB53B2FB53B3E1
:1004BA00BF53B4BF75F8C075C408D2FAAB4BAA4A89
:1004CA00A949A8487F407E427D0F7C00120185C35E
:1004DA0074FF9FFF74FF9EFEE49DFDE49CFC780878
:1004EA001202288FC6AB4BAA4AA949A8487F407E68
:1004FA00427D0F7C00120185C374FF9FFF8FC55395
:06050A009CFD43C4082221
:07080D0030F8FDAF9AC2F8BC
:0108140022C1
:08081500C2F98F9A30F9FD22AF
:100658008F4F8E4E8D4D8C4C538EF7438901D28C23
:10066800E4FFFEFDFCAB4FAA4EA94DA84CC31202F5
:10067800176025758A7E758CFF308DFDC28DE54F1C
:1006880024FFF54FE54E34FFF54EE54D34FFF54DAB
:0B069800E54C34FFF54C80C8C28C22FA
:1006A3008F1C8E1B8D1A8C19538EF7438901D28CA4
:1006B300E4FFFEFDFCAB1CAA1BA91AA819C3120276
:1006C300176025758ACA758CFA308DFDC28DE51CBD
:1006D30024FFF51CE51B34FFF51BE51A34FFF51A5F
:0B06E300E51934FFF51980C8C28C2215
:1006EE008F538E528D518C50538EEF438910D28E74
:1006FE00E4FFFEFDFCAB53AA52A951A850C312024F
:10070E00176025758BEA758DCB308FFDC28FE55343
:10071E0024FFF553E55234FFF552E55134FFF55100
:0B072E00E55034FFF55080C8C28E2259
:100570008F578E568D558C5453C9BF53C9DF43C90D
:1005800010D2CAE4FFFEFDFCAB57AA56A955A854E9
:10059000C3120217602575CC3075CDF830CFFDC27F
:1005A000CFE55724FFF557E55634FFF556E55534AA
:0E05B000FFF555E55434FFF55480C8C2CA2249
:1005BE008F5B8E5A8D598C5875C40743C408E4FF5F
:1005CE00FEFDFCAB5BAA5AA959A858C312021760CC
:1005DE002875C52C75C6CFE5C430E4FB53C4EFE5D2
:1005EE005B24FFF55BE55A34FFF55AE55934FFF508
:0D05FE0059E55834FFF55880C553C4F72265
:10060B008F5F8E5E8D5D8C5C75C40743C408E4FF01
:10061B00FEFDFCAB5FAA5EA95DA85CC3120217606E
:10062B002875C5D875C6FFE5C430E4FB53C4EFE5A8
:10063B005F24FFF55FE55E34FFF55EE55D34FFF5A6
:0D064B005DE55C34FFF55C80C553C4F7220B
:03000000020324D4
:1003240075C7AA75C75575FD5A75C7AA75C755759A
:10033400FDA5787FE4F6D8FD9000007FFF7E03E4FE
:0C034400F0A3DFFCDEFA75815F02038B82
:100350000203D0E493A3F8E493A34003F68001F2F0
:1003600008DFF48029E493A3F85407240CC8C333AE
:10037000C4540F4420C8834004F456800146F6DF7D
:10038000E4800B01020408102040809007E8E47E1E
:10039000019360BCA3FF543F30E509541FFEE49372
:1003A000A360010ECF54C025E060A840B8E493A339
:1003B000FAE493A3F8E493A3C8C582C8CAC583CA64
:1003C000F0A3C8C582C8CAC583CADFE9DEE780BE1C
:0107FC0000FC
:10002600E709F608DFFA8046E709F208DFFA803EBC
:1000360088828C83E709F0A3DFFA8032E309F608A9
:10004600DFFA8078E309F208DFFA807088828C8311
:10005600E309F0A3DFFA806489828A83E0A3F608C5
:10006600DFFA805889828A83E0A3F208DFFA804C9F
:1000760080D280FA80C680D4806980F28033801076
:1000860080A680EA809A80A880DA80E280CA8033DF
:1000960089828A83ECFAE493A3C8C582C8CCC58357
:1000A600CCF0A3C8C582C8CCC583CCDFE9DEE78027
:1000B6000D89828A83E493A3F608DFF9ECFAA9F0A6
:1000C600EDFB2289828A83ECFAE0A3C8C582C8CCFC
:1000D600C583CCF0A3C8C582C8CCC583CCDFEADE15
:1000E600E880DB89828A83E493A3F208DFF980CC77
:1000F60088F0EF60010E4E60C388F0ED2402B40470
:100106000050B9F582EB2402B4040050AF23234516
:06011600822390007673C5
:10011C00BB010CE58229F582E5833AF583E0225098
:10012C0006E92582F8E622BBFE06E92582F8E222E2
:0D013C00E58229F582E5833AF583E49322FC
:1001490075F008758200EF2FFFEE33FECD33CDCC6D
:1001590033CCC58233C5829BED9AEC99E5829840F0
:100169000CF582EE9BFEED9AFDEC99FC0FD5F0D6CD
:10017900E4CEFBE4CDFAE4CCF9A88222B800C1B9F7
:100189000059BA002DEC8BF084CFCECDFCE5F0CB35
:10019900F97818EF2FFFEE33FEED33FDEC33FCEB6E
:1001A90033FB10D703994004EB99FB0FD8E5E4F929
:1001B900FA227818EF2FFFEE33FEED33FDEC33FC16
:1001C900C933C910D7059BE99A4007EC9BFCE99A0A
:1001D900F90FD8E0E4C9FAE4CCFB2275F010EF2F4F
:1001E900FFEE33FEED33FDCC33CCC833C810D7074F
:1001F9009BEC9AE899400AED9BFDEC9AFCE899F88A
:0E0209000FD5F0DAE4CDFBE4CCFAE4C8F9221C
:10021700EB9FF5F0EA9E42F0E99D42F0E89C45F03D
:0102270022B4
:10022800E8600FECC313FCED13FDEE13FEEF13FFB4
:03023800D8F122D8
:10023B00E709F60870FA8046E709F20870FA803E83
:10024B0088828C83E709F0A370FA807EE309F608B5
:10025B0070FA8076E309F20870FA806E88828C83DC
:10026B00E309F0A370FA806289828A83E0A3F6081F
:10027B0070FA805689828A83E0A3F20870FA804A6A
:10028B0080D280FA80C680D4806580F28031801065
:10029B0080A680EA809A80A880DA80E280CA8031CA
:1002AB0089828A83ECFAE493A3C8C582C8CCC58340
:1002BB00CCF0A3C8C582C8CCC583CC70E9800D89AE
:1002CB00828A83E493A3F60870F9ECFAA9F0EDFBAC
:1002DB002289828A83ECFAE0A3C8C582C8CCC58385
:1002EB00CCF0A3C8C582C8CCC583CC70EA80DD89AD
:1002FB00828A83E493A3F20870F980CE88F0ED2410
:10030B0002B4040050C4F582EB2402B4040050BACA
:09031B00232345822390028B7319
:00000001FF
