:101EEC00736F6674776172652076657273696F6E55
:101EFC00203D20302E312E342C323031395F3039A8
:101F0C005F32300D0A000D0A0055415254205278B0
:101F1C00442074696D656F7574200D0A0025730A71
:101F2C000053797374656D2073746174653D3078FA
:101F3C0025630D0A0056434320404D4355203D2058
:101F4C0025640D0A0042617420766F6C20626B75FB
:101F5C007020404D4355203D2025640D0A00426100
:101F6C007420766F6C20404D4355203D2025640D28
:101F7C000A004655434B35363738394100000000CE
:021F8C00000053
:1017B900C104C102420145000041012D004100243C
:1017C9000041000000410025004201740000410170
:1017D90064004101230041002600410181004100CC
:1017E9001E00410129004100230041017D00410102
:1017F9004D0041012A0041014B0041018400410192
:1018090080004100200041002C0041014C004100B2
:10181900090041012C00420002000042002700009B
:1018290042014F000041012B00010A0041001F0045
:10183900010800010B00010900010C00C100C101F0
:1018490054000A03FF00000000000000000000002F
:101859000000000000000041014400420031000086
:1018690042002100004201770000420004000042CA
:10187900012E000042017A0000420182000042006C
:10188900070000420124000054013003FF0000005A
:1018990000000000000000000000000000000041FE
:1018A9000154004101270041017C004101760041BA
:1018B900012600420121000042011E3FFF42002F84
:1018C900000042002A3FFF420083000042002D3FF2
:1018D900FFC109C105010D00C10AC18341012000F1
:1018E900410152004101530041000100410006003D
:1018F9004101510041014A0041017F004201480074
:09190900004101790041002900B0
:03001B0002272495
:0F272400C28FC28E758DFA758BCBD28ED20432D6
:03002300021E4476
:101E4400C0E0C0F0C083C082C0D075D000C000C064
:101E540001C002C003C004C005C006C007309835E5
:101E6400C298AF0B74332FF582E43400F583E599FF
:101E7400F0AF0B74332FF582E43400F583E0FF12E6
:101E840026EB050BAF0BC3EF945074809480400392
:101E9400750B00D20B309935C299E509650C6028A1
:101EA400AF0974862FF582E43400F583E0F59905D3
:101EB40009AF09C3EF9496748094804003750900B8
:101EC40090012B7401F0800590012BE4F0D007D031
:101ED40006D005D004D003D002D001D000D0D0D099
:081EE40082D083D0F0D0E0327F
:03002B00020015BB
:05001500C2CFD202324F
:03005B0002001E82
:05001E00C2EFD2003228
:1026EB00AE0C74862EF582E43400F583EFF0050C06
:1026FB00AE0CEEC39496748094804003E4F50C22E8
:0A25D4008E128F138B148A158916DE
:1025DE00E512FF1226EBAF131226EBAF041226EB19
:1025EE00AF051226EBE4FDEDC3940A74809480507F
:1025FE0015AB14AA15A9168D82758300120D44FF12
:06260E001226EB0D80E135
:0126140022A3
:101A2D00A2AF9215C2AF75C7AA75C755439620A22E
:101A3D001592AF438E0243C98043C96053C9EF531A
:101A4D00C9F753C9FD53C9FE75CB8575CAEEC2C81A
:101A5D00439B80D2CA53890F4389105389F0438920
:101A6D000153897F5389BF538EEFE4F5B5D2ABD2C5
:101A7D008E53E8F043E80543B11053B2EFF5F6434A
:101A8D00F62043E10153E8F043E80643B10853B2B1
:101A9D00F7F5F643F64043E10143E80853E8F84310
:101AAD00E10153E1FD53E27F53E2DFD2AE43E101A9
:101ABD0053B1DF53B2DF53B1BF43B24053B17F5384
:101ACD00B27F53B3DF43B42053B3EF43B41053B3DA
:101ADD00F753B4F743B30253B4FD53B3FE43B4010C
:101AED0053B1FE43B20153B1FD43B20243B10853AA
:101AFD00B2F743B11053B2EFD291FF7EC27D01FC1C
:0E1B0D00122113D29AC299D2ACD2AF02162A7C
:10162A00E4900145F0A3F090012DF0900024F09091
:10163A000000F0900025F0C202900153F090018161
:10164A00F090001EF0900129F043E80853E8F843AF
:10165A00E101C2EFD2EE30EE030080FA7F017E0094
:10166A007D007C00122424AFC3EF75F010A4ADC234
:10167A007C002DFFEC35F0FE1224191223D77C00D2
:10168A007D18120DD8ED2418900023F01223D77C70
:10169A00007D3C120DD890017DEDF01223D77C001D
:1016AA007D3C120DD890014DEDF0122505900153A5
:1016BA00E064017019900023F090017DF01223D7A5
:1016CA007C007D18120DD8ED241890014DF0C20748
:1016DA001223D77C007D06120DD8ED2466FEEC3469
:1016EA0001900174F0A3CEF01223D77C007D18126A
:1016FA000DD8900164EDF01223D77C007D3C120DC9
:10170A00D8900123EDF01223D77C007D3C120DD82E
:10171A00900026EDF0900153E06401701F9001746F
:10172A00F0A3F0900164F09001237404F01223D71F
:10173A007C007D3C120DD8900026EDF0E490012A41
:10174A00F090014BF0900184F0900180F09000201D
:10175A00F090002CF090014CF0900009F090012CD0
:10176A00F0900002F0A3F0900120F0900152F0F501
:10177A000D900179F0D203C208C20AC20690015143
:10178A00F043E80853E8F843E101D2EEC200C2018F
:10179A0012201F90011CEEF0A3EFF0E490012BF051
:0F17AA00F50AF508F50BF509F50C90001FF02274
:1019130078247C007D007BFF7A1F797E7E007F1018
:10192300120D1E121A2D753CFF753D1F753E127B5D
:10193300FF7A1E79EC120954D2997F0A7E007D004A
:101943007C0012246FC295C294300B13C20B121485
:1019530017EF640470097BFF7A1F791512095490FD
:10196300017EE064027020F0753C01850E3D850F19
:101973003E7BFF7A1F7929120954D2997F0A7E0090
:101983007D007C0012246F30024CC202900025E0DF
:1019930004F0E054017003120F61900025E075F02C
:1019A3000684E5F0700C900147E064017004900038
:1019B30001F0AF0D1226158F3C7BFF7A1F792D1294
:1019C30009547FFF7E0F1211E88E3C8F3D7BFF7A17
:1019D3001F794112095430041AC204121B1B12004E
:1019E3002E12224312056690001FE004F0900001BE
:1019F300E004F0300005C20012005E300110C201A5
:101A0300122299121BF812001A1200268F2390003B
:101A13001FE06405600302194CF012268DEF640485
:0A1A2300600302194CD29902194C1D
:100F6100900000E004F0E0C3943C7480948050034E
:100F7100021034E4F0900024E004F0E0943C74802A
:100F810094804079E4F090012DE004F0E09418742D
:100F91008094804068E4F0900146E004F07006908F
:100FA1000145E004F0C3900146E0946C900145E0F6
:100FB10094014049E4F0A3F01223D77C007D06128E
:100FC1000DD8ED2466FEEC3401900174F0A3CEF04F
:100FD1001223D77C007D18120DD8900164EDF01218
:100FE10023D77C007D3C120DD8900123EDF0122314
:100FF100D77C007D3C120DD8900026EDF090015376
:10100100E06401702E900024E0C394057480948004
:101011004021E4F0900174F0A3F0900164F090019C
:10102100237404F01223D77C007D3C120DD890006C
:1010310026EDF0900174E0FCA3E0FD900145E0FE97
:10104100A3E0FFB5052AEEB50426900164E0FD900A
:10105100012DE0B5051A900123E0FD900024E0B5D3
:10106100050E900026E0FD900000E0B50502D20AD1
:101071007C007D07120D83ED64064C701A90012DE2
:10108100E064177012900024E0643B700A90000045
:10109100E0643B7002D206900153E0FF7E006401E0
:1010A100700A900000E0643B7002D206AD0D7C0036
:1010B100ED6401705B900181E004F0E0C3943C7445
:1010C1008094804025E4F090001EE004F0E0943C20
:1010D100748094804014E4F0900129E004F0E094DD
:1010E100307480948040037430F0900023E0FB90D2
:1010F1000129E0B5031A90017DE0FB90001EE0B5E7
:10110100030E90014DE0FB900181E0B50302D2078F
:10111100ED64044C6006E50D6407705490012AE00B
:1011210004F0E0C3943C74809480402BE4F090017F
:101131004BE004F0E0943C74809480401AE4F09019
:101141000184E004F0E09403748094804009740306
:10115100F09001807401F0EF64014E701390012A48
:10116100E0C3941E7480948040069001807401F065
:10117100AF0D7E00EF64077035900020E004F0E0D1
:10118100C3943C748094804025E4F090002CE004EA
:10119100F0E0943C748094804014E4F090014CE0C1
:1011A10004F0E094FA74809480400374FAF0EF64E0
:1011B100034E7032900009E004F0E0FF7E00C3941A
:1011C1006C74809480400690012C7401F09001535E
:1011D100E064017011C3EF940AEE648094804006CC
:0711E10090012C7401F022C3
:1025050020930912270B9001537401F020850912BD
:10251500270B9001537401F0E49001488013D39088
:102525000149E09464900148E09400501920850623
:10253500E4F0A3F080E8900149E004F070E0900138
:0725450048E004F080D822F9
:1021E200208525900149E004F07006900148E00442
:1021F200F0C3900149E09410900148E094274040D8
:102202007427F0A37410F022900148E0FEA3E0FFCF
:10221200C39488EE9413400DD3EF9410EE9427509C
:1022220004D2088014C3EF94E8EE9403400BD3EF7A
:1022320094D0EE94075002D206E4900148F0A3F045
:012242002279
:01001A0022C3
:030026007F002236
:10224300900179E07024209106900029F0801B9082
:102253000029E004F0E0C3940A74809480400B7476
:102263000AF09001797401F0C295900179E064015C
:10227300702320911B900029E004F0E0C3940A74BA
:102283008094804010740AF0E4900179F0D2952292
:06229300E4900029F02296
:10002E00900147E0601F14701F900001E0D3940A06
:10003E00748094805003C29022900176E07003D2B7
:0B004E009022C29022C29022D2902289
:101B1B00900003E004F07006900002E004F0C39024
:101B2B000003E094E8900002E094034004E4F0A387
:101B3B00F0900120E014600F14602714603B1460D8
:101B4B000A2404C2808047D2808043900002E0FECA
:101B5B00A3E0FF7C017DF4120D83ED4C7030B2805D
:101B6B00802C900002E0FEA3E0FF7C007DFA120DBA
:101B7B0083ED4C7019B2808015900002E0FEA3E05B
:101B8B00FF7C007D7D120D83ED4C7002B2809001C5
:101B9B0052E014601014602614603914600A240497
:101BAB007048C28122D28122900002E0FEA3E0FFA6
:101BBB007C017DF4120D83ED4C7031B281229000CB
:101BCB0002E0FEA3E0FF7C007DFA120D83ED4C706A
:101BDB001BB28122900002E0FEA3E0FF7C007D7D22
:0D1BEB00120D83ED4C7005B28122C28122E3
:10056600E50DB4090040030208F1900577F8282844
:10057600730205920205B40206B50206D702074EBB
:100586000207C30207E8020810020863D203E490D8
:100596000120F0900152F090014704F0C295C294F8
:1005A600900179E0640160030208F102080C30084A
:1005B6000D9001207404F0E4900152F08016900131
:1005C60052E0700B30030D9001207404F08005E4B6
:1005D600900120F09001477401F0C295C294C209BF
:1005E600C2051221E2900179E07033750D07900182
:1005F6004CF090002CF0900020F090012AF0900131
:100606004BF0900184F0900180F090017CF0900115
:1006160027F0C209C205900152E0900128F0300788
:100626002A200303300824750D04C203C208E4908F
:10063600012AF090014BF0900184F0900180F09037
:10064600017CF0900127F0C209C205300725300A67
:1006560022750D04C20AE490012AF090014BF09035
:100666000184F0900180F090017CF0900127F0C2A7
:1006760009C20530062AC206750D03E4900009F08A
:1006860090012CF090017CF0900127F0C209C20580
:10069600900120E0900085F0900152E090014EF02C
:1006A600900151E0640160030208F1750D0222E435
:1006B600900120F090015204F0900147F0C294C2DC
:1006C60009C205900179E064017003C29522D295B2
:1006D600229001207403F0E4900152F0900147F05B
:1006E600D295D294900179E0702B750D0790014C4C
:1006F600F090002CF0900020F090012AF090014B31
:10070600F0900184F0900180F090017CF090012738
:10071600F0C209C20590012CE064017013750D0149
:10072600900085E0900120F090014EE0900152F09B
:1007360090017CE064017003750D05900127E0646B
:100746000160030208F180719001207402F0E490C8
:100756000152F0900147F0D295D294900180E06466
:1007660001700D750D0890012004F0E4900152F01F
:10077600900179E0702D750D07D20390014CF09031
:10078600002CF0900020F090012AF090014BF090A0
:100796000184F0900180F090017CF0900127F0C276
:1007A60009C20590017CE064017003750D05900196
:1007B60027E0640160030208F1750D0622E490014A
:1007C60020F09001527402F090014714F0C294D2C6
:1007D60095C209C205900179E0640160030208F13F
:1007E6008024E4900120F09001527403F0900147B8
:1007F6007401F0C294D295C209C205900179E064F1
:100806000160030208F1750D0822E4900120F090C2
:100816000152F0900147F0D295D29490017CE064A9
:10082600017009900180E07003750D05900127E0C5
:1008360064017003750D06900179E064016003029E
:1008460008F1750D08900128E0FF700B9001200457
:10085600F0E4900152F022900152EFF022750D0162
:10086600E4900181F090001EF0900129F0300352CF
:100876001223D77C007D18120DD8ED241890002382
:10088600F01223D77C007D3C120DD890017DEDF04F
:100896001223D77C007D3C120DD890014DEDF090CF
:1008A6000153E064017040900023F090017DF01246
:1008B60023D77C007D18120DD8ED241890014DF039
:1008C60080259000237418F0E490017DF090014D8E
:1008D600F0900153E06401700E900023F090017DCA
:0C08E600F090014D7418F0C207C2062209
:10229900E4F537F538900004E0FEA3E0FFD394029B
:1022A900EE940740069001277401F0AD0DED64032B
:1022B900600AED64046005ED64077023C3EF94328E
:1022C900EE94005015900126E004F0E0C3941974CF
:0F22D900809480400AA37401F022E4900126F063
:0122E80022D3
:101BF800E4F537F538900001E0FFC394027480944F
:101C0800804054D3EF940A74809480504A90017AAB
:101C1800E0FEA3E0FF900182E0FCA3E0FD9FEC9EC4
:101C28004015ED9FFFEC9EFEC3EF94C2EE94014079
:101C3800069001517401F07BFF7A1F79518C3C8D1D
:101C48003D1209547BFF7A1F796A90017AE0F53CCE
:101C5800A3E0F53D020954900001E0C3940C7480A0
:101C68009480406390017AE0FEA3E0FF94A4EE9490
:101C78000B5004A37401F0C3EF9492EE940E400845
:101C8800900176E0700204F0C390017BE0943890F4
:101C9800017AE0940E5009900176E064017001F039
:101CA800900176E0701190017AE0FFA3E090018244
:101CB800CFF0A3EFF0800A900182740EF0A374387D
:071CC800F0900001740CF024
:011CCF0022F2
:10005E00E5E8540F640860030201F6900144E0C322
:10006E00940A748094804075AFC3EF75F010A4AD00
:10007E00C27C002DFFEC35F0FEE0FD25E024F6F508
:10008E0082E434FFF583EEF0A3EFF0ED25E024F6E5
:10009E00F582E434FFF583E0FEA3E0FF900121E05A
:1000AE00FCA3E0FDD3EF9DEE9C4008900121EEF005
:1000BE00A3EFF090011EE0FCA3E0FDC3EF9DEE9CCC
:1000CE00501B900144E025E024F6F582E434FFF560
:1000DE0083E0FFA3E090011ECFF0A3EFF090014468
:1000EE00E0C394137480948050030201EDE49000F9
:1000FE0031F0A3F090000CE0FEA3E0FF90000BE0C7
:10010E002FFF90000AE03EFE90000FE02FFF9000C0
:10011E000EE03EFE900011E02FFF900010E03EFE3C
:10012E00900013E02FFF900012E03EFE900015E0CD
:10013E002FFF900014E03EFE900017E02FFF90007E
:10014E0016E03EFE900019E02FFF900018E03EFEF4
:10015E0090001BE02FFF90001AE03EFE90001DE085
:10016E002FFF90001CE03EFE900031F0A3EFF090C8
:10017E000121E0FCA3E0FDC3EF9DFFEE9CFE90008D
:10018E0031F0A3EFF090011EE0FCA3E0FDC3EF9D64
:10019E00FFEE9C900031F0A3EFF0900031E0FEA353
:1001AE00E07803CEC313CE13D8F9FF900021EEF002
:1001BE00A3EFF0E4900121F0A3F090011E743FF044
:1001CE00A374FFF053E8F043E80543B11053B2EFC8
:1001DE00E4F5F643F62043E101900144F0800690E9
:1001EE000144E004F0D2EE22E5E8540F640560030A
:1001FE0002038F900144E0C3940A748094805003EC
:10020E0002030EE4900031F0A3F090000CE0FEA388
:10021E00E0FF90000BE02FFF90000AE03EFE900002
:10022E000FE02FFF90000EE03EFE900011E02FFF3A
:10023E00900010E03EFE900013E02FFF900012E0C1
:10024E003EFE900015E02FFF900014E03EFE900061
:10025E0017E02FFF900016E03EFE900019E02FFFF2
:10026E00900018E03EFE90001BE02FFF90001AE079
:10027E003EFE90001DE02FFF90001CE03EFE900021
:10028E0031F0A3EFF0900121E0FCA3E0FDC3EF9D60
:10029E00FFEE9CFE900031F0A3EFF090011EE0FC0B
:1002AE00A3E0FDC3EF9DFFEE9C900031F0A3EFF0B5
:1002BE00900031E0FEA3E07803CEC313CE13D8F93D
:1002CE00FF900177EEF0A3EFF0E4900121F0A3F0A0
:1002DE0090011E743FF0A374FFF01211E890000419
:1002EE00EEF0A3EFF053E8F043E80643B10853B243
:1002FE00F7E4F5F643F64043E101900144F0807EC9
:10030E00AFC3EF75F010A4ADC27C002DFFEC35F03D
:10031E00FE900144E0FD25E0240AF582E43400F568
:10032E0083EEF0A3EFF0ED25E0240AF582E434002D
:10033E00F583E0FEA3E0FF900121E0FCA3E0FDD3F6
:10034E00EF9DEE9C4008900121EEF0A3EFF090019E
:10035E001EE0FCA3E0FDC3EF9DEE9C501B900144FC
:10036E00E025E0240AF582E43400F583E0FFA3E003
:10037E0090011ECFF0A3EFF0900144E004F0D2EE16
:10038E0022E5E8540F6406600302055A900144E02A
:10039E00C3940A74809480500302049EE49000314A
:1003AE00F0A3F090000CE0FEA3E0FF90000BE02F16
:1003BE00FF90000AE03EFE90000FE02FFF90000E2F
:1003CE00E03EFE900011E02FFF900010E03EFE9008
:1003DE000013E02FFF900012E03EFE900015E02F7C
:1003EE00FF900014E03EFE900017E02FFF900016E5
:1003FE00E03EFE900019E02FFF900018E03EFE90C8
:10040E00001BE02FFF90001AE03EFE90001DE02F33
:10041E00FF90001CE03EFE900031F0A3EFF0900143
:10042E0021E0FCA3E0FDC3EF9DFFEE9CFE900031AA
:10043E00F0A3EFF090011EE0FCA3E0FDC3EF9DFFE3
:10044E00EE9C900031F0A3EFF0900031E0FEA3E0BF
:10045E007803CEC313CE13D8F9FF90012EEEF0A37E
:10046E00EFF0E4900121F0A3F090011E743FF0A391
:10047E0074FFF0E4900144F01211E890017AEEF06E
:10048E00A3EFF043E80853E8F843E101D201807E80
:10049E00AFC3EF75F010A4ADC27C002DFFEC35F0AC
:1004AE00FE900144E0FD25E0240AF582E43400F5D7
:1004BE0083EEF0A3EFF0ED25E0240AF582E434009C
:1004CE00F583E0FEA3E0FF900121E0FCA3E0FDD365
:1004DE00EF9DEE9C4008900121EEF0A3EFF090010D
:1004EE001EE0FCA3E0FDC3EF9DEE9C501B9001446B
:1004FE00E025E0240AF582E43400F583E0FFA3E072
:10050E0090011ECFF0A3EFF0900144E004F0D2EE84
:10051E0022900121EEF0A3EFF090011EE0FCA3E08B
:10052E00FDC3EF9DEE9C501B900144E025E0240A94
:10053E00F582E43400F583E0FFA3E090011ECFF0D6
:10054E00A3EFF0900144E004F0D2EE2243E808530A
:08055E00E8F843E101D2EE22AE
:04254C008F5D8D5EB4
:10255000900021E0FEA3E0FF7C007D0A120D83AB1A
:1025600007AA06AF5E7E00AD03AC02120D717C00BF
:102570007D0A120D83AA06AB07AF5D7E0090002195
:10258000E0FCA3E0FD120D71EF2BFBEE3AFEAF0372
:012590002228
:0411E800AD07AC069D
:1011EC00ECFF900211E4F0A3EFF0AF05A3E4F0A341
:1011FC00EFF090011CE0FCA3E0FDECFF900215E485
:10120C00F0A3EFF0AF05A3E4F0A3EFF0900217E02A
:10121C00FAA3E0FB900213E0FEA3E0FFAD03AC02E7
:10122C00120D71900209EEF0A3EFF0900211E0FEA6
:10123C00A3E0FF120D7190020BEEF0A3EFF0900201
:10124C0015E0FAA3E0FB900213E0FEA3E0FFAD0370
:10125C00AC02120D7190020DEEF0A3EFF0900211A2
:10126C00E0FEA3E0FF120D7190020FEEF0A3EFF081
:10127C00900209E0FCA3E0FD900207ECF0A3EDF076
:10128C00900205EEF0A3EFF090020BE0FAA3E0FB66
:10129C00FEC374FF9400FF74FF9EFED3ED9FEC9E83
:1012AC00400E900206E004F07006900205E004F097
:1012BC00EBFE900208E02400F0900207E03EF0EA1A
:1012CC00FF900206E02FF0900205E03400F090024F
:1012DC000EE07F00FEC374FF9FFD74FF9EFCD39055
:1012EC000208E09D900207E09C400E900206E0048C
:1012FC00F07006900205E004F0900208E02FF090E8
:10130C000207E03EF090020DE0FF900206E02FF0A5
:10131C00900205E03400F0E4900219F0900209F01C
:10132C00A3F0A3F0A3F0A3F0A3F0900219E0D394E0
:10133C000F7480948040030213E6900021E0FAA31E
:10134C00E0FB900205E0FEA3E0FFAD03AC02120D42
:10135C0083900209EEF0A3EFF0900219E0FFC37442
:10136C00109FFF900209E0FEA3E0A807088005C3C8
:10137C0033CE33CED8F9FF90020BEEF0A3EFF09002
:10138C00020EE02FF090020DE03EF0900205E0FE20
:10139C00A3E0FFAD03AC02120D83900205ECF0A3A9
:1013AC00EDF0E025E0FD900205E033FC900207E053
:1013BC00FAA3E0FBEAC413131354012DFEE43C9092
:1013CC000205F0A3CEF0EB25E0FEEA33A3F0A3CEAA
:1013DC00F0900219E004F002133690020DE0FEA327
:1013EC00E0FF7C007D03120D7190020DEEF0A3EF77
:1013FC00F090020DE0FEA3E07802CEC313CE13D81A
:0A140C00F9FF90020DEEF0A3EFF0DF
:0114160022B3
:10201F00A2AF9215C2AF75C7AA75C755439F01A24C
:10202F001592AF75A60CE4F5A775AF04A2AF921584
:10203F00C2AF75C7AA75C75543A401A21592AFAF1A
:10204F00AE75A60DF5A775AF04A2AF9215C2AF7509
:10205F00C7AA75C75543A401A21592AFADAE5305DC
:10206F000FA2AF9215C2AF75C7AA75C755539FFE82
:10207F00A21592AFFEEFC4F8540FC868FFEEC45418
:0B208F00F048FE7C00EF2DFFEC3EFE51
:01209A002223
:042733008F828E8380
:03273700E493FF29
:01273A00227C
:1026C400E4FDEDC3948074809480501AED2400FFDF
:1026D400E43447FE12273374852DF582E43401F582
:0626E40083EFF00D80DC25
:0126EA0022CD
:03000300E0FD0F0E
:0F000600EF547F2485F582E43401F583EDF02279
:101CD000E4FFF5A675A74775AEFFA2AF9215C2AF98
:101CE00075C7AA75C755439F01A21592AFA2AF92BF
:101CF00015C2AF75C7AA75C75543A501A21592AF06
:101D000075AF22A2AF9215C2AF75C7AA75C755436A
:101D1000A401A21592AFA2AF9215C2AF75C7AA7562
:101D2000C755439F01A21592AFA2AF9215C2AF75DE
:101D3000C7AA75C75543A501A21592AF75AF21EF8C
:101D4000C394807480948050288FA675A7477485AB
:101D50002FF582E43401F583E0F5AEA2AF9215C20F
:101D6000AF75C7AA75C75543A401A21592AF0F80DE
:101D7000CEA2AF9215C2AF75C7AA75C75553A5FEBF
:101D8000A21592AFA2AF9215C2AF75C7AA75C7557B
:071D9000539FFEA21592AF64
:011D97002229
:10209B007D55E4FF1200067DAA0F12000690014544
:1020AB00E0FD7F02120006900145A3120003900190
:1020BB002D120003900024E0FD0F1200069000008B
:1020CB00E0FD0F120006AD0D0F120006900129E086
:1020DB00FD0F12000690001EE0FD0F12000690018E
:1020EB0081E0FD0F1200067D550F1200067DAA0F31
:1020FB001200067D550F1200067DAA0F1200067DF9
:08210B00550F120006021CD062
:10270B00E4FEEEC3941074809480500AAF06E4FD8F
:09271B001200060E80EC021CD035
:10261500EFFD3395E0FCC3648094804011D3ED94C5
:1026250009EC648094805006EF2430FE801EC3EDD3
:10263500940AEC648094804011D3ED940FEC64808F
:0E26450094805006EF2437FE80027EFFAF0621
:012653002264
:10259100EFFD3395E0FCC3ED9430EC648094804012
:1025A10011D3ED9439EC648094805006EF24D0FE71
:1025B100801EC3ED9441EC648094804011D3ED946E
:1025C10046EC648094805006EF24C9FE80027EFFB1
:0225D100AF0653
:0125D30022E5
:10268D00E50AB40700502D90269BF82828730226E2
:10269D00B30226BE0226BE0226BE0226BE0226BEFC
:1026AD000226BE7F002290012BE07002D2997F009E
:0726BD00227F00227F0022B2
:10141700E508650B7003021627900162E024FE6061
:101427002D2402600302160BAF0874332FF582E4F4
:101437003400F583E064AA600302160B900155742B
:10144700AAF09001627402F0A314F002160B900147
:1014570063E0FF7E006401701AAD0874332DF582D6
:10146700E43400F583E0900156F09001637402F0D4
:1014770002160BEF64024E7035AF0874332FF582F6
:10148700E43400F583E0640A701AAF0874332FF56B
:1014970082E43400F583E0900157F0900163740310
:1014A700F002160BE4900162F0A3F002160B900114
:1014B70063E0FF7E006403701AAD0874332DF58274
:1014C700E43400F583E0900158F09001637404F070
:1014D70002160BEF64044E701AAF0874332FF582AF
:1014E700E43400F583E0900161F09001637405F046
:1014F70002160B900163E0FF7E006405701AAD08C9
:1015070074332DF582E43400F583E0900160F090A8
:1015170001637406F002160BEF64064E701AAF08EB
:1015270074332FF582E43400F583E090015FF09087
:1015370001637407F002160B900163E0FF7E0064FD
:1015470007701AAD0874332DF582E43400F583E093
:1015570090015EF09001637408F002160BEF6408C7
:101567004E701AAF0874332FF582E43400F583E028
:1015770090015DF09001637409F002160B9001630E
:10158700E0FF7E0064097019AD0874332DF582E41D
:101597003400F583E090015CF0900163740AF080F9
:1015A70063EF640A4E7019AF0874332FF582E43481
:1015B70000F583E090015BF0900163740BF08044C9
:1015C700900163E0FF7E00640B7019AD0874332D42
:1015D700F582E43400F583E090015AF090016374DA
:1015E7000CF08020EF640C4E701AAF0874332FF59F
:1015F70082E43400F583E0900159F09001627401B0
:10160700F0E4A3F0AF08C3EF9450748094804005D2
:10161700E4F50880020508900162E06401021417EE
:031627007F00221F
:101F8E00E508650B700302201EAF0874332FF5822F
:101F9E00E43400F583E0B42B1C90017E7401F0E470
:101FAE00F510F51185100E85110F851182851083A0
:101FBE00742BF0804490017EE06401703C851182A8
:101FCE00851083E0B40D16AF0874332FF582E43418
:101FDE0000F583E0B40A0690017E7402F00511E567
:101FEE001170020510AF0874332FF582E43400F53A
:101FFE0083E0851182851083F0AF08C3EF9450748F
:10200E008094804006E4F508021F8E0508021F8E9C
:01201E00229F
:1026540053B1BF53B2BF53B17F53B27F7598D043C8
:102664008920438780438E1053C4DFAB07AA06A991
:1026740005A8047F407E427D0F7C00120E4AEF04C1
:09268400F404F58DD28ED29922E6
:102113008F3A8E398D388C3753B1BF53B2BF53B119
:102123007F53B27F75985043878053C4F843C420CC
:10213300AB3AAA39A938A8377F407E427D0F7C008D
:10214300120E4AC374FF9FFF74FF9EFEE49DFDE4DD
:102153009CFC7808120EED8FC6AB3AAA39A938A8B1
:10216300377F407E427D0F7C00120E4AC374FF9F6F
:09217300FF8FC543C408D2992274
:07273B003098FDAF99C29830
:012742002274
:08274300C2998F993099FD2223
:10217C008F1A8E198D188C1753B1FB53B2FB53B3B6
:10218C00BF53B4BF75F8C075C408D2FAAB1AAA19FC
:10219C00A918A8177F407E427D0F7C00120E4AC3FF
:1021AC0074FF9FFF74FF9EFEE49DFDE49CFC780889
:1021BC00120EED8FC6AB1AAA19A918A8177F407E6C
:1021CC00427D0F7C00120E4AC374FF9FFF8FC553D4
:0621DC009CFD43C4082233
:07274B0030F8FDAF9AC2F85F
:012752002264
:08275300C2F98F9A30F9FD2252
:102424008F3A8E398D388C37538EF7438901D28C8D
:10243400E4FFFEFDFCAB3AAA39A938A837C3120E53
:10244400DC6025758A7E758CFF308DFDC28DE53A82
:1024540024FFF53AE53934FFF539E53834FFF5382A
:0B246400E53734FFF53780C8C28C223A
:10246F008F3A8E398D388C37538EF7438901D28C42
:10247F00E4FFFEFDFCAB3AAA39A938A837C3120E08
:10248F00DC6025758ACA758CFA308DFDC28DE53AF0
:10249F0024FFF53AE53934FFF539E53834FFF538DF
:0B24AF00E53734FFF53780C8C28C22EF
:1024BA008F1E8E1D8D1C8C1B538EEF438910D28E5E
:1024CA00E4FFFEFDFCAB1EAA1DA91CA81BC3120E2D
:1024DA00DC6025758BEA758DCB308FFDC28FE51ECA
:1024EA0024FFF51EE51D34FFF51DE51C34FFF51C20
:0B24FA00E51B34FFF51B80C8C28E22DA
:102389008F508E4F8D4E8C4D53C9BF53C9DF43C9F2
:1023990010D2CAE4FFFEFDFCAB50AA4FA94EA84DCE
:1023A900C3120EDC602575CC3075CDF830CFFDC277
:1023B900CFE55024FFF550E54F34FFF54FE54E3496
:0E23C900FFF54EE54D34FFF54D80C8C2CA2227
:1022E9008F548E538D528C5175C40743C408E4FF33
:1022F900FEFDFCAB54AA53A952A851C3120EDC60CF
:102309002B75C52C75C6CFE5C45410641070F853ED
:10231900C4EFE55424FFF554E55334FFF553E55272
:1023290034FFF552E55134FFF55180C253C4F72209
:102339008F588E578D568C5575C40743C408E4FFD2
:10234900FEFDFCAB58AA57A956A855C3120EDC606E
:102359002B75C5D875C6FFE5C45410641070F853C1
:10236900C4EFE55824FFF558E55734FFF557E5560E
:1023790034FFF556E55534FFF55580C253C4F722AD
:03000000021D9846
:101D980075C7AA75C75575FD5A75C7AA75C755750C
:101DA800FDA5787FE4F6D8FD9000007FFF7E03E470
:0C1DB800F0A3DFFCDEFA75815E021DFF67
:101DC400021913E493A3F8E493A34003F68001F209
:101DD40008DFF48029E493A3F85407240CC8C33320
:101DE400C4540F4420C8834004F456800146F6DFEF
:101DF400E4800B01020408102040809017B9E47EAF
:101E0400019360BCA3FF543F30E509541FFEE493E3
:101E1400A360010ECF54C025E060A840B8E493A3AA
:101E2400FAE493A3F8E493A3C8C582C8CAC583CAD5
:101E3400F0A3C8C582C8CAC583CADFE9DEE780BE8D
:0119120000D4
:100C4E00E709F608DFFA8046E709F208DFFA803E88
:100C5E0088828C83E709F0A3DFFA8032E309F60875
:100C6E00DFFA8078E309F208DFFA807088828C83DD
:100C7E00E309F0A3DFFA806489828A83E0A3F60891
:100C8E00DFFA805889828A83E0A3F208DFFA804C6B
:100C9E0080D280FA80C680D4806980F28033801042
:100CAE0080A680EA809A80A880DA80E280CA8033AB
:100CBE0089828A83ECFAE493A3C8C582C8CCC58323
:100CCE00CCF0A3C8C582C8CCC583CCDFE9DEE780F3
:100CDE000D89828A83E493A3F608DFF9ECFAA9F072
:100CEE00EDFB2289828A83ECFAE0A3C8C582C8CCC8
:100CFE00C583CCF0A3C8C582C8CCC583CCDFEADEE1
:100D0E00E880DB89828A83E493A3F208DFF980CC42
:100D1E0088F0EF60010E4E60C388F0ED2402B4043B
:100D2E000050B9F582EB2402B4040050AF232345E2
:060D3E008223900C9E735D
:100D4400BB010CE58229F582E5833AF583E0225064
:100D540006E92582F8E622BBFE06E92582F8E222AE
:0D0D6400E58229F582E5833AF583E49322C8
:100D7100EF8DF0A4A8F0CF8CF0A428CE8DF0A42E96
:020D8100FE2250
:100D8300BC000BBE0029EF8DF084FFADF022E4CC54
:100D9300F875F008EF2FFFEE33FEEC33FCEE9DEC1D
:100DA300984005FCEE9DFE0FD5F0E9E4CEFD22ED63
:100DB300F8F5F0EE8420D21CFEADF075F008EF2FAD
:100DC300FFED33FD4007985006D5F0F222C398FD9E
:050DD3000FD5F0EA223B
:100DD800C2D5EC30E709B2D5E4C39DFDE49CFCEE36
:100DE80030E715B2D5E4C39FFFE49EFE120D83C31E
:100DF800E49DFDE49CFC8003120D8330D507C3E419
:060E08009FFFE49EFE22A4
:100E0E0075F008758200EF2FFFEE33FECD33CDCC9B
:100E1E0033CCC58233C5829BED9AEC99E58298401E
:100E2E000CF582EE9BFEED9AFDEC99FC0FD5F0D6FB
:100E3E00E4CEFBE4CDFAE4CCF9A88222B800C1B925
:100E4E000059BA002DEC8BF084CFCECDFCE5F0CB63
:100E5E00F97818EF2FFFEE33FEED33FDEC33FCEB9C
:100E6E0033FB10D703994004EB99FB0FD8E5E4F957
:100E7E00FA227818EF2FFFEE33FEED33FDEC33FC44
:100E8E00C933C910D7059BE99A4007EC9BFCE99A38
:100E9E00F90FD8E0E4C9FAE4CCFB2275F010EF2F7D
:100EAE00FFEE33FEED33FDCC33CCC833C810D7077D
:100EBE009BEC9AE899400AED9BFDEC9AFCE899F8B8
:0E0ECE000FD5F0DAE4CDFBE4CCFAE4C8F9224B
:100EDC00EB9FF5F0EA9E42F0E99D42F0E89C45F06C
:010EEC0022E3
:100EED00E8600FECC313FCED13FDEE13FEEF13FFE3
:030EFD00D8F12207
:1008F200E548243CF8E60548227839301302783C72
:10090200E475F001120F2B020F00200CEB7F2ED2A8
:100912000C8018EF540F2490D43440D4FF30100BC5
:10092200EF24BFB41A0050032461FFE549600215A9
:1009320049054CE54C7002054B30130D7839E475CE
:10094200F001120F2BEF020F190226EB7403D213E0
:100952008003E4C213F5488B398A3A893BE4F549AE
:10096200F54BF54CE54960077F2012092D80F5759E
:100972004AFFC20DC20CC20EC20FC211C212C21471
:100982001208FBFF700D3013057F0012093EAF4CB9
:10099200AE4B22B4255FC2D5C2101208FBFF24D091
:1009A200B40A00501A75F00A784930D50508B6FF26
:1009B2000106C6A426F620D5047002D20F80D924DF
:1009C200CFB41A00EF5004C2E5D210020B3ED20D92
:1009D20080C6D20C80C0D20E80BCD2D580BAD211D1
:1009E20080B47F2012092D200E077401B549004002
:1009F200F11208F2FF12092D020966D214D21280F6
:100A0200951208F2FB1208F2FA1208F2F94A4B7038
:100A120006790F7A0C7BFF200E2EE549602A7E00B4
:100A22008E82758300120D4460060EEE654A70F0E8
:100A3200C2D5EBC0E0EAC0E0E9C0E0EE120B85D01F
:100A4200E0F9D0E0FAD0E0FB120F00FF60AAEBC0A1
:100A5200E0EAC0E0E9C0E012092DD0E02401F9D0BB
:100A6200E03400FAD0E0FBE54A0460DCD54AD980E4
:100A7200877BFF7A0B7981D20E809C791080027974
:100A820008C212C2148008D2D5790A8004790AC237
:100A9200D5E54A047002F54AE4FAFDFEFF1208F2B7
:100AA200FC7B08200D131208F2FD7B10300C0A1299
:100AB20008F2FE1208F2FF7B20EC3382D592D55069
:100AC20013C3E4300C069FFFE49EFEE4200D039D59
:100AD200FDE49CFCE4CBF8C20DEC700CCFCECDCC87
:100AE200E824F8F870F38017C3EF33FFEE33FEED1E
:100AF20033FDEC33FCEB33FB994002FB0FD8E9EBFF
:100B0200300D05F8D0E0C448B20DC0E00AEC4D4EFD
:100B12004F78207B0070C2EAB54A0040BCC0E012A8
:100B22000B87D0F0D0E0200D04C4C0E0C4B20DC0E9
:100B3200F0120916D0F0D5F0EB020966120F3B0A4B
:100B420003530A7D5809D44C09D0420A814F0A89BD
:0F0B5200440A894909E9430A8F550A73460A7311
:100B6100450A73470C2F5009D82D09DC2E09FF2B9C
:100B710009E02309FD200C182A099848000009F70B
:100B81003F3F3F00790AA2D5200F14301109B91057
:100B9100020404B9080104A2D52012025001042064
:100BA1000E68920EB549005034C0E07F20300F1915
:100BB1007F30A20E72127211500F120BDEC20EC2E2
:100BC10012C211C2147F30800F301103E9C0E0124C
:100BD100092D301103D0E0F9D0E0B549CC3011171F
:100BE1007F30B9100C12092D7F583010077F7880A3
:100BF10003B9080312092D300E057F2D02092D7F3F
:100C0100202014F87F2B2012F322920E80CF286E21
:100C1100756C6C2900D20D1208F2300DF8C20D78F6
:100C21004930D50108F60209982D50434958120858
:100C3100F22403B405004001E4900C2A9312091E2A
:0D0C4100743A12091ED20F754904020A7D93
:1023D700AC59AD5AAE5BAF5C7810EC4D4E4F700404
:1023E7007CA57DA5C3EC13FCED13FDEE13FEEF13E7
:1023F700FF5010EC64CCFCED644CFDEE644EFEEF38
:1024070064CEFFD8DF8C598D5A8E5B8F5CEE547F7C
:0D241700FE228E598F5A74A5F55BF55C22EC
:100F0000BB010689828A83E0225002E722BBFE02EF
:090F1000E32289828A83E4932222
:100F1900BB010689828A83F0225002F722BBFE01B7
:020F2900F322B1
:100F2B00FAE6FB0808E6F925F0F618E6CA3AF622C7
:100F3B00D083D082F8E4937012740193700DA3A345
:100F4B0093F8740193F5828883E473740293686059
:060F5B00EFA3A3A380DF59
:00000001FF
